{
  "_format": "hh-sol-artifact-1",
  "contractName": "Hexagon",
  "sourceName": "contracts/Hexagon.sol",
  "abi": [
    {
      "inputs": [],
      "stateMutability": "nonpayable",
      "type": "constructor"
    },
    {
      "inputs": [
        {
          "internalType": "string",
          "name": "productName",
          "type": "string"
        },
        {
          "internalType": "bytes32",
          "name": "code",
          "type": "bytes32"
        }
      ],
      "name": "checkAuthenticity",
      "outputs": [],
      "stateMutability": "nonpayable",
      "type": "function"
    },
    {
      "inputs": [
        {
          "internalType": "string",
          "name": "productName",
          "type": "string"
        },
        {
          "internalType": "bytes32[]",
          "name": "codeHashes",
          "type": "bytes32[]"
        }
      ],
      "name": "createItems",
      "outputs": [],
      "stateMutability": "nonpayable",
      "type": "function"
    },
    {
      "inputs": [
        {
          "internalType": "string",
          "name": "name",
          "type": "string"
        },
        {
          "internalType": "string",
          "name": "url",
          "type": "string"
        }
      ],
      "name": "createProduct",
      "outputs": [],
      "stateMutability": "nonpayable",
      "type": "function"
    },
    {
      "inputs": [
        {
          "internalType": "string",
          "name": "name",
          "type": "string"
        }
      ],
      "name": "getInfo",
      "outputs": [
        {
          "internalType": "string",
          "name": "",
          "type": "string"
        }
      ],
      "stateMutability": "view",
      "type": "function"
    },
    {
      "inputs": [
        {
          "internalType": "address",
          "name": "manufacturer",
          "type": "address"
        }
      ],
      "name": "getManufacturer",
      "outputs": [
        {
          "internalType": "uint256",
          "name": "",
          "type": "uint256"
        },
        {
          "internalType": "string",
          "name": "",
          "type": "string"
        },
        {
          "internalType": "address",
          "name": "",
          "type": "address"
        },
        {
          "internalType": "string[]",
          "name": "",
          "type": "string[]"
        }
      ],
      "stateMutability": "view",
      "type": "function"
    },
    {
      "inputs": [
        {
          "internalType": "string",
          "name": "name",
          "type": "string"
        }
      ],
      "name": "getProduct",
      "outputs": [
        {
          "internalType": "uint256",
          "name": "",
          "type": "uint256"
        },
        {
          "internalType": "string",
          "name": "",
          "type": "string"
        },
        {
          "internalType": "string",
          "name": "",
          "type": "string"
        },
        {
          "internalType": "address",
          "name": "",
          "type": "address"
        },
        {
          "internalType": "uint256",
          "name": "",
          "type": "uint256"
        }
      ],
      "stateMutability": "view",
      "type": "function"
    },
    {
      "inputs": [
        {
          "internalType": "address",
          "name": "user",
          "type": "address"
        }
      ],
      "name": "isManufacturer",
      "outputs": [
        {
          "internalType": "bool",
          "name": "",
          "type": "bool"
        }
      ],
      "stateMutability": "view",
      "type": "function"
    },
    {
      "inputs": [
        {
          "internalType": "string",
          "name": "name",
          "type": "string"
        }
      ],
      "name": "register",
      "outputs": [],
      "stateMutability": "nonpayable",
      "type": "function"
    },
    {
      "inputs": [],
      "name": "totalManufacturers",
      "outputs": [
        {
          "internalType": "uint256",
          "name": "",
          "type": "uint256"
        }
      ],
      "stateMutability": "view",
      "type": "function"
    },
    {
      "inputs": [],
      "name": "totalProducts",
      "outputs": [
        {
          "internalType": "uint256",
          "name": "",
          "type": "uint256"
        }
      ],
      "stateMutability": "view",
      "type": "function"
    },
    {
      "inputs": [
        {
          "internalType": "string",
          "name": "productName",
          "type": "string"
        },
        {
          "internalType": "string",
          "name": "url",
          "type": "string"
        }
      ],
      "name": "updateProduct",
      "outputs": [],
      "stateMutability": "nonpayable",
      "type": "function"
    }
  ],
  "bytecode": "0x608060405234801561001057600080fd5b50611f8b806100206000396000f3fe608060405234801561001057600080fd5b50600436106100a95760003560e01c806368111cce1161007157806368111cce146101675780637ee005ab1461019b57806387592bce146101cb5780639b9d326d146101e7578063f0b7712e14610205578063f2c298be14610221576100a9565b806317d4a491146100ae578063191bcef6146100de5780632a450ba71461011157806346323b5c1461012d578063640ed50714610149575b600080fd5b6100c860048036038101906100c39190611351565b61023d565b6040516100d59190611399565b60405180910390f35b6100f860048036038101906100f39190611351565b610299565b6040516101089493929190611581565b60405180910390f35b61012b60048036038101906101269190611709565b610509565b005b6101476004803603810190610142919061187f565b61065a565b005b61015161098f565b60405161015e91906118f7565b60405180910390f35b610181600480360381019061017c9190611912565b610995565b60405161019295949392919061195b565b60405180910390f35b6101b560048036038101906101b09190611912565b610b5f565b6040516101c291906119bc565b60405180910390f35b6101e560048036038101906101e09190611709565b610c18565b005b6101ef610e00565b6040516101fc91906118f7565b60405180910390f35b61021f600480360381019061021a91906119de565b610e06565b005b61023b60048036038101906102369190611912565b610fee565b005b600080600160008473ffffffffffffffffffffffffffffffffffffffff1673ffffffffffffffffffffffffffffffffffffffff16815260200190815260200160002054111561028f5760019050610294565b600090505b919050565b60006060600060606102aa8561023d565b6102e9576040517f08c379a00000000000000000000000000000000000000000000000000000000081526004016102e090611a86565b60405180910390fd5b6000600160008773ffffffffffffffffffffffffffffffffffffffff1673ffffffffffffffffffffffffffffffffffffffff1681526020019081526020016000205490506000806000838152602001908152602001600020600101805461034f90611ad5565b80601f016020809104026020016040519081016040528092919081815260200182805461037b90611ad5565b80156103c85780601f1061039d576101008083540402835291602001916103c8565b820191906000526020600020905b8154815290600101906020018083116103ab57829003601f168201915b50505050509050600080600084815260200190815260200160002060020160009054906101000a900473ffffffffffffffffffffffffffffffffffffffff1690506000806000858152602001908152602001600020600301805480602002602001604051908101604052809291908181526020016000905b828210156104ec57838290600052602060002001805461045f90611ad5565b80601f016020809104026020016040519081016040528092919081815260200182805461048b90611ad5565b80156104d85780601f106104ad576101008083540402835291602001916104d8565b820191906000526020600020905b8154815290600101906020018083116104bb57829003601f168201915b505050505081526020019060010190610440565b505050509050838383839750975097509750505050509193509193565b81600060058260405161051c9190611b43565b9081526020016040518091039020600001541161056e576040517f08c379a000000000000000000000000000000000000000000000000000000000815260040161056590611ba6565b60405180910390fd5b823373ffffffffffffffffffffffffffffffffffffffff166005826040516105969190611b43565b908152602001604051809103902060030160009054906101000a900473ffffffffffffffffffffffffffffffffffffffff1673ffffffffffffffffffffffffffffffffffffffff161461061e576040517f08c379a000000000000000000000000000000000000000000000000000000000815260040161061590611c38565b60405180910390fd5b8260058560405161062f9190611b43565b90815260200160405180910390206002019080519060200190610653929190611178565b5050505050565b81600060058260405161066d9190611b43565b908152602001604051809103902060000154116106bf576040517f08c379a00000000000000000000000000000000000000000000000000000000081526004016106b690611ba6565b60405180910390fd5b823373ffffffffffffffffffffffffffffffffffffffff166005826040516106e79190611b43565b908152602001604051809103902060030160009054906101000a900473ffffffffffffffffffffffffffffffffffffffff1673ffffffffffffffffffffffffffffffffffffffff161461076f576040517f08c379a000000000000000000000000000000000000000000000000000000000815260040161076690611c38565b60405180910390fd5b60005b835181101561094f57600060058660405161078d9190611b43565b908152602001604051809103902060000154116107df576040517f08c379a00000000000000000000000000000000000000000000000000000000081526004016107d690611ba6565b60405180910390fd5b60006002866040516107f19190611b43565b9081526020016040518091039020600086848151811061081457610813611c58565b5b6020026020010151815260200190815260200160002050602060ff161415610871576040517f08c379a000000000000000000000000000000000000000000000000000000000815260040161086890611cd3565b60405180910390fd5b604051806060016040528085838151811061088f5761088e611c58565b5b60200260200101518152602001868152602001600015158152506002866040516108b99190611b43565b908152602001604051809103902060008684815181106108dc576108db611c58565b5b60200260200101518152602001908152602001600020600082015181600001556020820151816001019080519060200190610918929190611178565b5060408201518160020160006101000a81548160ff021916908315150217905550905050808061094790611d22565b915050610772565b5082516005856040516109629190611b43565b908152602001604051809103902060040160008282546109829190611d6b565b9250508190555050505050565b60035481565b60006060806000808560006005826040516109b09190611b43565b90815260200160405180910390206000015411610a02576040517f08c379a00000000000000000000000000000000000000000000000000000000081526004016109f990611ba6565b60405180910390fd5b6000600588604051610a149190611b43565b90815260200160405180910390206000015490506000600589604051610a3a9190611b43565b90815260200160405180910390206002018054610a5690611ad5565b80601f0160208091040260200160405190810160405280929190818152602001828054610a8290611ad5565b8015610acf5780601f10610aa457610100808354040283529160200191610acf565b820191906000526020600020905b815481529060010190602001808311610ab257829003601f168201915b50505050509050600060058a604051610ae89190611b43565b908152602001604051809103902060030160009054906101000a900473ffffffffffffffffffffffffffffffffffffffff169050600060058b604051610b2e9190611b43565b9081526020016040518091039020600401549050838b84848499509950995099509950505050505091939590929450565b60606000600583604051610b739190611b43565b90815260200160405180910390206002018054610b8f90611ad5565b80601f0160208091040260200160405190810160405280929190818152602001828054610bbb90611ad5565b8015610c085780601f10610bdd57610100808354040283529160200191610c08565b820191906000526020600020905b815481529060010190602001808311610beb57829003601f168201915b5050505050905080915050919050565b610c213361023d565b610c60576040517f08c379a0000000000000000000000000000000000000000000000000000000008152600401610c5790611e33565b60405180910390fd5b60046000815480929190610c7390611d22565b91905055506040518060a0016040528060045481526020018381526020018281526020013373ffffffffffffffffffffffffffffffffffffffff1681526020016000815250600583604051610cc89190611b43565b9081526020016040518091039020600082015181600001556020820151816001019080519060200190610cfc929190611178565b506040820151816002019080519060200190610d19929190611178565b5060608201518160030160006101000a81548173ffffffffffffffffffffffffffffffffffffffff021916908373ffffffffffffffffffffffffffffffffffffffff16021790555060808201518160040155905050600080600160003373ffffffffffffffffffffffffffffffffffffffff1673ffffffffffffffffffffffffffffffffffffffff16815260200190815260200160002054815260200190815260200160002060030182908060018154018082558091505060019003906000526020600020016000909190919091509080519060200190610dfb929190611178565b505050565b60045481565b816000600582604051610e199190611b43565b90815260200160405180910390206000015411610e6b576040517f08c379a0000000000000000000000000000000000000000000000000000000008152600401610e6290611ba6565b60405180910390fd5b600082604051602001610e7e9190611e62565b6040516020818303038152906040528051906020012090506000600285604051610ea89190611b43565b908152602001604051809103902060008381526020019081526020016000206001018054610ed590611ad5565b905011610f17576040517f08c379a0000000000000000000000000000000000000000000000000000000008152600401610f0e90611ec9565b60405180910390fd5b60001515600285604051610f2b9190611b43565b9081526020016040518091039020600083815260200190815260200160002060020160009054906101000a900460ff16151514610f9d576040517f08c379a0000000000000000000000000000000000000000000000000000000008152600401610f9490611f35565b60405180910390fd5b6001600285604051610faf9190611b43565b9081526020016040518091039020600083815260200190815260200160002060020160006101000a81548160ff02191690831515021790555050505050565b6003600081548092919061100190611d22565b9190505550604051806080016040528060035481526020018281526020013373ffffffffffffffffffffffffffffffffffffffff168152602001600067ffffffffffffffff811115611056576110556115de565b5b60405190808252806020026020018201604052801561108957816020015b60608152602001906001900390816110745790505b5081525060008060035481526020019081526020016000206000820151816000015560208201518160010190805190602001906110c7929190611178565b5060408201518160020160006101000a81548173ffffffffffffffffffffffffffffffffffffffff021916908373ffffffffffffffffffffffffffffffffffffffff160217905550606082015181600301908051906020019061112b9291906111fe565b50905050600354600160003373ffffffffffffffffffffffffffffffffffffffff1673ffffffffffffffffffffffffffffffffffffffff1681526020019081526020016000208190555050565b82805461118490611ad5565b90600052602060002090601f0160209004810192826111a657600085556111ed565b82601f106111bf57805160ff19168380011785556111ed565b828001600101855582156111ed579182015b828111156111ec5782518255916020019190600101906111d1565b5b5090506111fa919061125e565b5090565b82805482825590600052602060002090810192821561124d579160200282015b8281111561124c57825182908051906020019061123c929190611178565b509160200191906001019061121e565b5b50905061125a919061127b565b5090565b5b8082111561127757600081600090555060010161125f565b5090565b5b8082111561129b5760008181611292919061129f565b5060010161127c565b5090565b5080546112ab90611ad5565b6000825580601f106112bd57506112dc565b601f0160209004906000526020600020908101906112db919061125e565b5b50565b6000604051905090565b600080fd5b600080fd5b600073ffffffffffffffffffffffffffffffffffffffff82169050919050565b600061131e826112f3565b9050919050565b61132e81611313565b811461133957600080fd5b50565b60008135905061134b81611325565b92915050565b600060208284031215611367576113666112e9565b5b60006113758482850161133c565b91505092915050565b60008115159050919050565b6113938161137e565b82525050565b60006020820190506113ae600083018461138a565b92915050565b6000819050919050565b6113c7816113b4565b82525050565b600081519050919050565b600082825260208201905092915050565b60005b838110156114075780820151818401526020810190506113ec565b83811115611416576000848401525b50505050565b6000601f19601f8301169050919050565b6000611438826113cd565b61144281856113d8565b93506114528185602086016113e9565b61145b8161141c565b840191505092915050565b61146f81611313565b82525050565b600081519050919050565b600082825260208201905092915050565b6000819050602082019050919050565b600082825260208201905092915050565b60006114bd826113cd565b6114c781856114a1565b93506114d78185602086016113e9565b6114e08161141c565b840191505092915050565b60006114f783836114b2565b905092915050565b6000602082019050919050565b600061151782611475565b6115218185611480565b93508360208202850161153385611491565b8060005b8581101561156f578484038952815161155085826114eb565b945061155b836114ff565b925060208a01995050600181019050611537565b50829750879550505050505092915050565b600060808201905061159660008301876113be565b81810360208301526115a8818661142d565b90506115b76040830185611466565b81810360608301526115c9818461150c565b905095945050505050565b600080fd5b600080fd5b7f4e487b7100000000000000000000000000000000000000000000000000000000600052604160045260246000fd5b6116168261141c565b810181811067ffffffffffffffff82111715611635576116346115de565b5b80604052505050565b60006116486112df565b9050611654828261160d565b919050565b600067ffffffffffffffff821115611674576116736115de565b5b61167d8261141c565b9050602081019050919050565b82818337600083830152505050565b60006116ac6116a784611659565b61163e565b9050828152602081018484840111156116c8576116c76115d9565b5b6116d384828561168a565b509392505050565b600082601f8301126116f0576116ef6115d4565b5b8135611700848260208601611699565b91505092915050565b600080604083850312156117205761171f6112e9565b5b600083013567ffffffffffffffff81111561173e5761173d6112ee565b5b61174a858286016116db565b925050602083013567ffffffffffffffff81111561176b5761176a6112ee565b5b611777858286016116db565b9150509250929050565b600067ffffffffffffffff82111561179c5761179b6115de565b5b602082029050602081019050919050565b600080fd5b6000819050919050565b6117c5816117b2565b81146117d057600080fd5b50565b6000813590506117e2816117bc565b92915050565b60006117fb6117f684611781565b61163e565b9050808382526020820190506020840283018581111561181e5761181d6117ad565b5b835b81811015611847578061183388826117d3565b845260208401935050602081019050611820565b5050509392505050565b600082601f830112611866576118656115d4565b5b81356118768482602086016117e8565b91505092915050565b60008060408385031215611896576118956112e9565b5b600083013567ffffffffffffffff8111156118b4576118b36112ee565b5b6118c0858286016116db565b925050602083013567ffffffffffffffff8111156118e1576118e06112ee565b5b6118ed85828601611851565b9150509250929050565b600060208201905061190c60008301846113be565b92915050565b600060208284031215611928576119276112e9565b5b600082013567ffffffffffffffff811115611946576119456112ee565b5b611952848285016116db565b91505092915050565b600060a08201905061197060008301886113be565b8181036020830152611982818761142d565b90508181036040830152611996818661142d565b90506119a56060830185611466565b6119b260808301846113be565b9695505050505050565b600060208201905081810360008301526119d6818461142d565b905092915050565b600080604083850312156119f5576119f46112e9565b5b600083013567ffffffffffffffff811115611a1357611a126112ee565b5b611a1f858286016116db565b9250506020611a30858286016117d3565b9150509250929050565b7f6e6f742061206d616e7566616374757265720000000000000000000000000000600082015250565b6000611a706012836113d8565b9150611a7b82611a3a565b602082019050919050565b60006020820190508181036000830152611a9f81611a63565b9050919050565b7f4e487b7100000000000000000000000000000000000000000000000000000000600052602260045260246000fd5b60006002820490506001821680611aed57607f821691505b60208210811415611b0157611b00611aa6565b5b50919050565b600081905092915050565b6000611b1d826113cd565b611b278185611b07565b9350611b378185602086016113e9565b80840191505092915050565b6000611b4f8284611b12565b915081905092915050565b7f696e76616c69642070726f647563742100000000000000000000000000000000600082015250565b6000611b906010836113d8565b9150611b9b82611b5a565b602082019050919050565b60006020820190508181036000830152611bbf81611b83565b9050919050565b7f6f6e6c792070726f64756374206d616e756661637475726572732063616e206360008201527f616c6c20746869732066756e6374696f6e210000000000000000000000000000602082015250565b6000611c226032836113d8565b9150611c2d82611bc6565b604082019050919050565b60006020820190508181036000830152611c5181611c15565b9050919050565b7f4e487b7100000000000000000000000000000000000000000000000000000000600052603260045260246000fd5b7f636f646520657869737421000000000000000000000000000000000000000000600082015250565b6000611cbd600b836113d8565b9150611cc882611c87565b602082019050919050565b60006020820190508181036000830152611cec81611cb0565b9050919050565b7f4e487b7100000000000000000000000000000000000000000000000000000000600052601160045260246000fd5b6000611d2d826113b4565b91507fffffffffffffffffffffffffffffffffffffffffffffffffffffffffffffffff821415611d6057611d5f611cf3565b5b600182019050919050565b6000611d76826113b4565b9150611d81836113b4565b9250827fffffffffffffffffffffffffffffffffffffffffffffffffffffffffffffffff03821115611db657611db5611cf3565b5b828201905092915050565b7f6f6e6c79206d616e756661637475726572732063616e2063616c6c207468697360008201527f2066756e6374696f6e2100000000000000000000000000000000000000000000602082015250565b6000611e1d602a836113d8565b9150611e2882611dc1565b604082019050919050565b60006020820190508181036000830152611e4c81611e10565b9050919050565b611e5c816117b2565b82525050565b6000602082019050611e776000830184611e53565b92915050565b7f636f646520696e76616c69642100000000000000000000000000000000000000600082015250565b6000611eb3600d836113d8565b9150611ebe82611e7d565b602082019050919050565b60006020820190508181036000830152611ee281611ea6565b9050919050565b7f70726f6475637420626f75676874210000000000000000000000000000000000600082015250565b6000611f1f600f836113d8565b9150611f2a82611ee9565b602082019050919050565b60006020820190508181036000830152611f4e81611f12565b905091905056fea2646970667358221220ebbc835331cb064a1028047e99a93f1401047a670155515fb109d2ab95aa5a9564736f6c63430008090033",
  "linkReferences": {},
  "deployedLinkReferences": {}
}